:100000000C9455000C9474000C9474000C947400BF
:100010000C9474000C9474000C9474000C94740090
:100020000C9474000C9474000C9474000C94740080
:100030000C9474000C9474000C9474000C94740070
:100040000C9474000C9474000C9474000C94740060
:100050000C9474000C9474000C9474000C94740050
:100060000C9474000C9474000C9474000C94740040
:100070000C9474000C9474000C9474000C94740030
:100080000C9474000C9474000C947400B900C300B8
:10009000FD004201FD00420186018601DD01BB0138
:1000A000C801DD01DD01D501DD0111241FBECFEF47
:1000B000D0E4DEBFCDBF11E0A0E0B1E0E0E8F4E0C5
:1000C00000E00BBF02C007900D92A833B107D9F72B
:1000D00021E0A8E3B1E001C01D92A134B207E1F72D
:1000E0000E94E8010C943E020C940000CF93DF9331
:1000F00000D01F92CDB7DEB789837B836A83898165
:100100008A3031F48A819B81BC018DE00E947600A7
:1001100080EC90E0FC018081882F90E0807299272C
:10012000892BB1F386EC90E02981FC01208380E0EB
:1001300090E00F900F900F90DF91CF910895CF93A3
:10014000DF93CDB7DEB78091390190913A01CC01B0
:10015000A0E0B0E040E050E027E030E0841B950BE9
:100160002817390708F4EAC08A5B9F4FFC010C94FA
:10017000050281E090E090933A018093390187E095
:1001800080933801E3C080E290E0FC018081882FF9
:1001900090E083709927019739F482E090E0909382
:1001A0003A0180933901D2C080E290E0FC01808165
:1001B000882F90E083709927029739F483E090E0CC
:1001C00090933A0180933901C1C080E290E0FC0134
:1001D0008081882F90E083709927039739F486E017
:1001E00090E090933A0180933901B0C081E090E0B3
:1001F00090933A0180933901A9C080E290E0FC011C
:100200008081882F90E083709927019739F484E0EA
:1002100090E090933A018093390195C080E290E09C
:10022000FC018081882F90E083709927892B39F415
:1002300081E090E090933A018093390184C080E29C
:1002400090E0FC018081882F90E0837099270297CD
:1002500039F483E090E090933A018093390173C0C0
:1002600080E290E0FC018081882F90E083709927E4
:10027000039709F068C086E090E090933A0180937C
:10028000390161C080E290E0FC018081882F90E01C
:1002900083709927019739F482E090E090933A01B6
:1002A0008093390152C080E290E0FC018081882F68
:1002B00090E083709927892B39F481E090E0909346
:1002C0003A018093390141C080E290E0FC018081D5
:1002D000882F90E083709927029739F485E090E0A9
:1002E00090933A018093390130C080E290E0FC01A4
:1002F0008081882F90E083709927039731F586E0FD
:1003000090E090933A01809339011FC080E290E021
:10031000FC018081882F90E083709927892B39F424
:1003200081E090E090933A01809339010FC087E01B
:1003300090E090933A018093390108C08EE091E0FB
:100340000E940E0203C0000001C00000809139012C
:1003500090913A01CC01A0E0B0E041E050E026E00D
:1003600030E0841B950B2817390710F1825B9F4FF3
:10037000FC010C94050280913801893020F48091B1
:1003800038018F5F02C0809138018093380116C018
:1003900080913801882321F080913801815002C07A
:1003A000809138018093380109C01092380106C04D
:1003B00085E291E00E940E0201C0000088E290E018
:1003C00020913801FC0120830000DF91CF91089536
:1003D000CF93DF93CDB7DEB781E290E0FC011082CE
:1003E00082E290E02FEFFC01208387E290E02FEF84
:1003F000FC01208388E290E0FC01108210923A0117
:10040000109239010E949F00FDCFEE0FFF1F0024C4
:10041000001C0BBE0790F691E02D09940F931F93DB
:10042000CF93DF93E0913D01F0913E01238121FFC5
:100430001BC08C01D0E0C0E0F80181918F01609178
:100440003D0170913E01DB011896ED91FC911997E9
:10045000882331F00995892B79F3DFEFCFEFECCFCB
:100460008AE00995892B19F08FEF9FEF02C08D2F3D
:100470009C2FDF91CF911F910F910895F894FFCF9A
:10048000000000020000000076000000000053742D
:10049000617465205472616E736974696F6E204572
:1004A00072726F7200537461746520416374696F76
:0804B0006E204572726F7200AC
:00000001FF
